S01100004C445F5445435F50532E7372656346
S11300001FC02EC02DC02CC02BC02AC029C028C0A0
S113001027C024C125C024C023C022C021C020C0C1
S11300201FC01EC01DC000FF0100010000FFFF0033
S113003000010001FF003F0C5B5E6C76771C7F7E45
S113004011241FBECFE5D4E0DEBFCDBF20E0A0E683
S1130050B0E001C01D92AA37B207E1F7C0D039C1A0
S1130060CFCF0F931F93CF93DF93EC0188819981B6
S1130070009721F0479709F03EC004C087E190E063
S11300809983888312D140916200042F10E020E00C
S113009030E0601771078207930789F106D16093F6
S11300A0620026B3287180916300280FE22FF0E0EC
S11300B0EA5DFF4FE49180916400909165008E0F9A
S11300C0911D9093650080936400220F220F2F707E
S11300D0209363008935924030F088E592E0909354
S11300E06500809364008091640090916500909312
S11300F06100809360001982188283E001C080E06F
S1130100DF91CF911F910F9108950F931F93CF9378
S1130110DF93EC0188819981009709F448C087979F
S113012009F04CC004C087E290E099838883BDD075
S113013000916700109168002091690030916A0075
S1130140AB01BC01401B510B620B730B45305105D5
S113015061057105B8F1A9D06093670070936800D8
S11301608093690090936A009798C698C798E09125
S11301706600F0E0E958FF4FE081F0E0EA5CFF4FF1
S1130180E491EF77E2BB80916600811101C0979AF8
S113019080916600813009F4C69A809166008230AD
S11301A009F4C79A809166008F5F809366008091FE
S11301B06600833008F4B7CF109266001982188263
S11301C083E001C080E0DF91CF911F910F910895EA
S11301D080916B0090916C008093770008958FEF6D
S11301E081BB83EC87BB18BA12BA83B7836083BF21
S11301F089B7816089BF82E882BF10926E00109235
S11302006D001092700010926F00109272001092A4
S1130210710078940F2EF7E7EF2EF0E0FF2EF02D0B
S11302200F2EF7E0BF2EF02D08E710E00F2EF9E0B7
S1130230CF2EF02DC9E7D0E06894DD24D1F8F70182
S1130240B082F801C082D8828DE690E05EDF8FE64E
S113025090E007DF81E790E0BBDFF1CF1F920F92C0
S11302600FB60F9211248F939F93AF93BF938091F6
S1130270730090917400A0917500B091760001967E
S1130280A11DB11D8093730090937400A093750019
S1130290B093760082E882BFBF91AF919F918F9116
S11302A00F900FBE0F901F9018950F931F938FB749
S11302B0F8940091730010917400209175003091AE
S11302C076008FBF602F712F822F932F1F910F9174
S10902D00895F894FFCF2D
S9030000FC
