S01100004C445F5445435F50532E7372656346
S11300001FC02EC02DC02CC02BC02AC04CC228C07B
S113001027C095C325C024C082C222C050C220C0BC
S11300201FC01EC01DC03F0C5B5E6C76771C7F7EBC
S113003000FF0100010000FFFF0000010001FF00BC
S113004011241FBECFE5D4E0DEBFCDBF20E0A0E683
S1130050B0E001C01D92AC38B207E1F76AD2BEC36A
S1130060CFCF0F931F93CF93DF93EC0188819981B6
S11300708632910559F08B32910561F1892B09F093
S11300805FC057C086E290E0998388837FD3009154
S11300906100109162002091630030916400DC01E2
S11300A0CB01801B910BA20BB30B0597A105B105E6
S11300B008F44AC06BD3609361007093620080932C
S11300C063009093640012BAC698C7988BE290E0DC
S11300D0998388835BD30091610010916200209121
S11300E0630030916400601771078207930771F110
S11300F082B3A0916000B0E0A757BF4FEC91F0E04D
S1130100EA5DFF4FE4918E2B82BB809160008111E8
S113011001C0979A80916000813009F4C69A809159
S11301206000823009F4C79A809160008F5F8093E9
S1130130600080916000833008F4A4CF10926000C6
S11301401982188283E003C080E001C080E0DF915F
S1130150CF911F910F9108950F931F93CF93DF9326
S1130160EC01888199818032910551F084329105A6
S113017039F1892B09F04DC080E290E0998388839E
S113018005D320916D00AB01BC01421B51096109EB
S11301907109423051056105710508F43EC0F6D27B
S11301A060936D0086B38871869586958695909147
S11301B06C00890F80936C0084E290E099838883BB
S11301C0E5D240916D00042F10E020E030E060178C
S11301D071078207930719F180916C00E82FF0E012
S11301E0E05DFF4FE49190916B00E90FE0936B00A9
S11301F0880F880F8F7080936C00E11103C081E039
S113020080936B0080916B0090E0909370008093DA
S11302106F001982188283E003C080E001C080E08F
S1130220DF91CF911F910F9108950F931F93CF9357
S1130230DF93EC01888199818633910551F08134F3
S11302409105F1F1892B09F061C086E390E099836F
S113025088839CD200916700109168002091690006
S113026030916A00601771078207930709F452C03E
S11302708DD26093670070936800809369009093B7
S11302806A00B5990EC08091650090916600893E20
S113029023E0920730F40196909366008093650002
S11302A035C08091650090916600853823E09207FF
S11302B0E0F082E080936E0081E490E0998388838B
S11302C065D2009167001091680020916900309117
S11302D06A00DC01CB01801B910BA20BB30B883E9F
S11302E09340A105B10570F417C0059758F08091AB
S11302F06E008150823018F410926E0003C081E0C9
S113030080936E0010926600109265001982188224
S113031083E003C080E001C080E0DF91CF911F91B2
S11303200F910895CF92DF92EF92FF920F931F9354
S1130330DA011396FA011382FD018B019C013695B3
S113034027951795079568017901F694E794D79452
S1130350C794C00ED11EE21EF31E97018601689455
S113036013F836952795179507951694D1F7C00E6F
S1130370D11EE21EF31E33272F2D1E2D0D2DC00E70
S1130380D11EE21EF31E870122273327C00ED11E81
S1130390E21EF31E97018601689412F8369527959C
S11303A0179507951694D1F74C2D487F641B802F21
S11303B0880F462F481B4A3040F04A50C901B80103
S11303C06F5F7F4F8F4F9F4F02C0C901B8014293A7
S11303D02A2F2E1B611571058105910509F0ADCFFA
S11303E0213031F4DF0113971C9211961C9205C041
S11303F0223019F4DF0112971C92CF011F910F9143
S1130400FF90EF90DF90CF900895CF93DF93EC01AE
S113041088819981892B49F460916F0070917000F3
S113042080E090E049E850E07DDF1982188283E0A3
S1130430DF91CF910895CF93DF93EC018881998167
S1130440009721F08739910529F025C087E990E0CC
S1130450998388839BD120917300AB01BC01421B1B
S11304605109610971094431510561057105B8F0FB
S11304708DD160937300609181004091740050911C
S1130480750070E080916F0090917000B0D09093EF
S11304907200809371001982188283E001C080E0A9
S11304A0DF91CF9108951F920F920FB60F921124EE
S11304B01DBC1CBC0F900FBE0F901F9018951F926F
S11304C00F920FB60F9211248F939F93EF93FF9384
S11304D0E0918000F0E085B1EF57FF4F80838FEE0D
S11304E087B9809180008F5F809380008091800025
S11304F0843038F487B190918000807F892B87B94C
S113050004C01092800080EE87B9369AFF91EF9173
S11305109F918F910F900FBE0F901F9018951F926F
S11305200F920FB60F9211240F900FBE0F901F90D1
S113053018958FEF81BB97EC97BB90EF94BB12BAE1
S113054098E398BB15BA93B7936093BF99B7916139
S113055099BF92E892BF90E49FBD91E09EBD1BBC01
S11305608ABD80EE87B98EE186B983E389B910BC70
S11305701BB888E18AB986E880BD10927F0010928A
S11305807E00109279001092780010927D001092F3
S11305907C0010927B0010927A00109277001092E7
S11305A07600A8952FE088E190E00FB6F894A8951E
S11305B081BD0FBE21BD789486B1806C86B98CE76D
S11305C090E0CADD8AE790E020DF8EE790E049DD25
S11305D088E790E02ADE86E790E02DDF80916E00C8
S11305E0813011F4C09A01C0C098A895E8CF0F9348
S11305F01F93CF93DF93EB01FA01861B970B24859E
S113060035852817390784F03195219531098217EA
S113061093076CF026813781829F8001839F100DA0
S1130620929F100D112405C00FEF1FE702C001E0D7
S113063010E8AA2797FDA095BA2F428153816481BF
S113064075819A01AB01280F391F4A1F5B1F8685EC
S11306509785A089B18982179307A407B5074CF43D
S113066082839383A483B5836FEF7FEF8FEF9FE340
S11306701CC0B095A095909581959F4FAF4FBF4FEB
S1130680281739074A075B074CF482839383A483B2
S1130690B58361E070E080E090EC07C0228333838F
S11306A044835583A085B1857DD0408151814C1B05
S11306B05D0B22853385429FD001439FB00D529F2D
S11306C0B00D1124D183C083222717FD2095322F2A
S11306D0060F171F281F391FCD01AA2797FDA095C4
S11306E0BA2F080F191F2A1F3B1FD901C801332332
S11306F024F481589F4FAF4FBF4F689416F8B595B7
S1130700A795979587951694D1F7813020E892079D
S11307102FEFA207B20724F481E090E8AFEFBFEF18
S1130720811520E89207A105B10524F08FEF9FE71A
S1130730A0E0B0E0DF91CF911F910F9108951F9237
S11307400F920FB60F9211248F939F93AF93BF9381
S11307508091850090918600A0918700B0918800D7
S11307600196A11DB11D8093850090938600A093EE
S11307708700B093880082E882BFBF91AF919F91B8
S11307808F910F900FBE0F901F9018952FB7F8946C
S11307906091850070918600809187009091880017
S11307A02FBF0895B7FF04C003D0821B930B089595
S11307B009D0A59F900DB49F900DA49F800D911D0D
S11307C011240895A29FB001B39FC001A39F01D03B
S11307D0B29F700D811D1124911D0895F894FFCFCF
S9030000FC
