:100000001FC039C038C037C036C035C066C533C020
:1000100032C058C830C02FC02EC02DC070C52BC0F4
:100020002AC029C028C03F0C5B5E6C76771C7F7E9F
:1000300000FF0100010000FFFF0000010001FF00C0
:1000400011241FBECFE5D4E0DEBFCDBF10E0A0E697
:10005000B0E0EEEAF2E102C005900D92A236B107DF
:10006000D9F720E0A2E6B0E001C01D92A439B207A2
:10007000E1F7A2D51AC9C4CFCF93DF9300D000D047
:10008000CDB7DEB78C838C81882F90E08A5D9F4F3F
:100090009A83898389819A81FC0184918B838B81E6
:1000A0000F900F900F900F90DF91CF910895EF92E6
:1000B000FF920F931F93CF93DF9300D01F92CDB782
:1000C000DEB79B838A8381E089838A819B81FC01DF
:1000D000808191818632910579F08B32910509F406
:1000E0004CC0892B09F49BC0A2C08A819B8126E267
:1000F00030E0FC01318320831DD89B01AC0180914D
:10010000620090916300A0916400B0916500790154
:100110008A01E81AF90A0A0B1B0BD801C7010597D7
:10012000A105B10510F480E089C004D8DC01CB0141
:100130008093620090936300A0936400B093650085
:1001400082E390E0FC01108288E390E028E330E055
:10015000F90120812F7BFC01208388E390E028E3D4
:1001600030E0F90120812F77FC0120838A819B8177
:100170002BE230E0FC0131832083DCD79B01AC0112
:100180008091620090916300A0916400B09165003D
:10019000281739074A075B0711F480E04FC08091A8
:1001A0006600882F90E08F569F4FFC01808164DFAE
:1001B000482F82E390E022E330E0F9012081242BF4
:1001C000FC01208380916600882349F482E390E05B
:1001D00022E330E0F90120812068FC012083809136
:1001E0006600813049F488E390E028E330E0F901CB
:1001F00020812064FC01208380916600823049F4D4
:1002000088E390E028E330E0F90120812068FC01D8
:100210002083809166008F5F8093660001C000009C
:1002200080916600833008F460CF109266001982D6
:100230008A819B81FC011182108283E00F900F90D4
:100240000F90DF91CF911F910F91FF90EF90089544
:10025000CF93DF9300D000D000D0CDB7DEB79E8320
:100260008D8381E089838D819E81FC0180819181D4
:100270008732910569F08B329105D1F1892B09F014
:100280007DC08D819E8127E230E0FC013183208397
:1002900051D79B01AC0180916A00882F90E0A0E0CB
:1002A000B0E0281739074A075B0711F480E06DC0FA
:1002B00041D7DC01CB0180936A0086E390E0FC012A
:1002C0008081882F90E088719927959587959595DD
:1002D000879595958795982F80916B00890F8093CE
:1002E0006B008D819E812BE230E0FC013183208305
:1002F00021D79B01AC0180916A00882F90E0A0E09B
:10030000B0E0281739074A075B0711F480E03DC0C9
:1003100080916B00882F90E0805D9F4F9B838A8344
:100320008A819B81FC0184918C838C8190916000F7
:10033000F92FF81B8F2F8093600080916B00880F3E
:10034000880F80936B0080916B008F7080936B009F
:1003500080916000882319F481E08093600080918F
:1003600060008F3F19F48EEF8093600080916000F1
:10037000882F90E0909368008093670019828D81A8
:100380009E81FC011182108283E026960FB6F894BC
:10039000DEBF0FBECDBFDF91CF910895EF92FF92E8
:1003A0000F931F93CF93DF9300D01F92CDB7DEB78B
:1003B0009B838A8381E089838A819B81FC01808180
:1003C00091818D33910571F08834910509F450C005
:1003D000892B09F087C08A819B812DE330E0FC01E5
:1003E00031832083A7D69B01AC0180916C00909152
:1003F0006D00A0916E00B0916F00281739074A0771
:100400005B0711F480E075C095D6DC01CB018093C9
:100410006C0090936D00A0936E00B0936F0086E324
:1004200090E0FC018081882F90E080729927892BD1
:1004300089F48091700090917100893E934050F44E
:10044000809170009091710001969093710080935B
:10045000700048C080917000909171008538934081
:1004600008F18A819B8128E430E0FC0131832083FC
:1004700061D69B01AC0180916C0090916D00A091C0
:100480006E00B0916F0079018A01E81AF90A0A0B2F
:100490001B0BD801C701883E9340A105B105F0F4BC
:1004A00080E027C080917000909171000597B0F0B6
:1004B00080916900882321F481E0809369000EC057
:1004C00080916900813021F482E08093690006C048
:1004D00080916900823011F41092690010927100CD
:1004E0001092700019828A819B81FC011182108216
:1004F00083E00F900F900F90DF91CF911F910F919C
:10050000FF90EF9008952F923F924F925F926F92DB
:100510007F928F929F92AF92BF92CF92DF92EF9293
:10052000FF920F931F93CF93DF93CDB7DEB7629700
:100530000FB6F894DEBF0FBECDBF6F87788B898B67
:100540009A8B8F859889A989BA89B695A795979529
:1005500087958A879B87AC87BD872A853B854C8595
:100560005D858A859B85AC85BD85B695A795979554
:100570008795820F931FA41FB51F8A879B87AC871F
:10058000BD872A853B854C855D858A859B85AC85A5
:10059000BD85689413F8B695A79597958795169499
:1005A000D1F7820F931FA41FB51F8A879B87AC8743
:1005B000BD872A853B854C855D858A859B85AC8575
:1005C000BD85892F9A2FAB2FBB27820F931FA41FA6
:1005D000B51F8A879B87AC87BD872A853B854C855D
:1005E0005D858A859B85AC85BD85CD01AA27BB2706
:1005F000820F931FA41FB51F8A879B87AC87BD8777
:100600008A859B85AC85BD8589839A83AB83BC83B2
:100610008A859B85AC85BD85689412F8B695A795AB
:10062000979587951694D1F78A879B87AC87BD8766
:100630002F858A859B85AC85BD85982F990F8981EB
:10064000887F890F922F981B892F8E878E858A30FD
:1006500070F08E858A508E878A859B85AC85BD8596
:100660000196A11DB11D8A879B87AC87BD8785E058
:10067000FE013A96DE01159601900D928A95E1F7FA
:1006800040E04D8130E03E8120E02F8190E0988570
:1006900080E08985242E332E422E592E682EA22CDE
:1006A000B32CC42CD52CE62CF72C082D192D2A2D73
:1006B0003B2D4C2D5D2D6E2D7F2D802F912F629621
:1006C0000FB6F894DEBF0FBECDBFDF91CF911F9163
:1006D0000F91FF90EF90DF90CF90BF90AF909F90E1
:1006E0008F907F906F905F904F903F902F900895E4
:1006F000AF92BF92CF92DF92EF92FF920F931F9330
:10070000CF93DF93CDB7DEB72C970FB6F894DEBF4B
:100710000FBECDBF6F83788789879A875C874B87A9
:10072000198219820CC08B859C85FC0110828B85F7
:100730009C8501969C878B8789818F5F89838981BE
:10074000833088F38F819885A985BA85BC01CD0156
:10075000DADEA22EB32EC42ED52EE62EF72E082FCB
:10076000192F2A2D3B2D4C2D5D2D6E2D7F2D802F89
:10077000912F2A833B834C835D836E838B859C857D
:1007800001979C878B872E818B859C85FC0120831C
:100790008A819B81AC81BD818F839887A987BA8725
:1007A0008F819885A985BA85892B8A2B8B2B51F649
:1007B0008B859C852C960FB6F894DEBF0FBECDBFFF
:1007C000DF91CF911F910F91FF90EF90DF90CF902D
:1007D000BF90AF900895EF92FF920F931F93CF9326
:1007E000DF9300D01F92CDB7DEB79B838A8381E071
:1007F00089838A819B81FC0180819181009721F00E
:10080000813B910541F081C08A819B8121EB30E0E1
:10081000FC01318320838ED49B01AC018091860042
:10082000882F90E0A0E0B0E079018A01E81AF90A87
:100830000A0B1B0BD801C7010A97A105B10510F4DB
:1008400080E06AC085E590E025E530E0F90120818F
:100850002068FC01208386E290E026E230E0F90186
:100860002081206CFC012083889585E590E025E5BA
:1008700030E0F90120812F77FC01208380918700EF
:10088000803200F5809187008F5F80938700809190
:100890007200282F30E040E050E080918800909175
:1008A0008900A0918A00B0918B00820F931FA41F32
:1008B000B51F8093880090938900A0938A00B0931D
:1008C0008B001EC010928700809188009091890053
:1008D000A0918A00B0918B00689414F8B695A79502
:1008E000979587951694D1F7909378008093770029
:1008F000109288001092890010928A0010928B004A
:1009000019D4DC01CB018093860019828A819B81F6
:10091000FC011182108283E00F900F900F90DF9105
:10092000CF911F910F91FF90EF900895EF92FF925A
:100930000F931F93CF93DF93CDB7DEB727970FB6F3
:10094000F894DEBF0FBECDBF9F838E831A821982BB
:100950001C821B8281E08D838E819F81FC018081BE
:100960009181009721F08A3C910541F0A2C08E81CF
:100970009F812AEC30E0FC0131832083DBD39B0193
:10098000AC0180918C00882F90E0A0E0B0E079016C
:100990008A01E81AF90A0A0B1B0BD801C701843631
:1009A0009105A105B10510F480E08AC081E990E0CD
:1009B0009A838983809184009091850020917700AB
:1009C00030917800B9012091670030916800AC0146
:1009D000C901FFD19923A4F48091840090918500EE
:1009E0002091770030917800B90120916700309113
:1009F0006800AC01C901EDD191958195910910C0B4
:100A0000809184009091850020917700309178004A
:100A1000B9012091670030916800AC01C901D9D1BA
:100A20009C838B8380916900882379F4809177007F
:100A300090917800CC01A0E0B0E029813A81A90131
:100A4000BC01CD0155DE9A83898380916900813094
:100A500079F48091670090916800CC01A0E0B0E04B
:100A600029813A81A901BC01CD0142DE9A838983A3
:100A700080916900823069F48B819C81CC01A0E077
:100A8000B0E029813A81A901BC01CD0131DE9A8310
:100A900089838091840090918500E4D280916700E1
:100AA000909168008093790045D3DC01CB0180935D
:100AB0008C001D828E819F81FC011182108283E057
:100AC00027960FB6F894DEBF0FBECDBFDF91CF9152
:100AD0001F910F91FF90EF9008951F920F92009039
:100AE0005F000F921124CF93DF93CDB7DEB7DF9174
:100AF000CF910F9000925F000F901F9018951F925A
:100B00000F9200905F000F9211242F933F938F93C9
:100B10009F93EF93FF93CF93DF93CDB7DEB7809191
:100B20007600882F90E025E230E0F90120818E5890
:100B30009F4FFC01208387E290E027E230E0F9013B
:100B400020812F60FC012083809176008F5F80934D
:100B5000760080917600843068F487E290E027E2A6
:100B600030E0F9012081207F30917600232BFC01B9
:100B700020830BC01092760087E290E027E230E0FD
:100B8000F9012081207FFC01208386E290E026E2AB
:100B900030E0F90120812064FC012083DF91CF91B6
:100BA000FF91EF919F918F913F912F910F90009224
:100BB0005F000F901F901895CF93DF93CDB7DEB7EE
:100BC00081E390E02FEFFC01208387E390E027ECA6
:100BD000FC01208384E390E020EFFC01208382E38A
:100BE00090E0FC01108288E390E028E3FC01208380
:100BF00085E390E0FC01108283E590E023E530E09E
:100C0000F90120812360FC01208382E590E022E845
:100C1000FC0120838FE490E021E8FC0120838EE436
:100C200090E029E0FC0120838BE490E0FC0110823D
:100C30008AE490E02FE7FC0120838CE490E0FC0143
:100C40001182108289E590E0FC01108289E590E034
:100C500029E530E0F90120812161FC01208387E250
:100C600090E020EEFC01208386E290E02FE0FC0182
:100C7000208385E590E025E530E0F90120812061C1
:100C8000FC01208380918400909185009C0140E0CC
:100C900050E060E070E082E090E032D010927B00A3
:100CA00010927A0010927F0010927E0010927D00C8
:100CB00010927C00109281001092800010928300AC
:100CC00010928200A89587E087708860982F88E14D
:100CD0000FB6F894A89581BD0FBE91BD78948AE7B0
:100CE00090E0E5D98EE790E059DB8CE790E0B0DA50
:100CF00080E890E070DD82E890E018DEA895EFCF04
:100D0000CF93DF93CDB7DEB72E970FB6F894DEBF43
:100D10000FBECDBF9A8389837C836B835E834D83B3
:100D200038872F838F819885FC0112821382148269
:100D300015828F819885FC01118210828F819885A0
:100D400029813A81FC01378326838F8198852B8105
:100D50003C81FC01318720878F8198852D813E81E0
:100D6000FC01338722878F819885FC0186819781DA
:100D70009C012F5F3F4F8FEF9FE7B9011BD2CB0143
:100D80009C018F819885FC01358724878F81988508
:100D9000FC018085918501969C01990F440B550BB0
:100DA0008FEF9FEFAFEFBFE3BC01CD0116D2DA01A9
:100DB000C9012F813885F90186879787A08BB18B70
:100DC0002E960FB6F894DEBF0FBECDBFDF91CF9148
:100DD0000895CF93DF93CDB7DEB768970FB6F89439
:100DE000DEBF0FBECDBF9C8B8B8B7E8B6D8B588FE8
:100DF0004F8B2B893C898D899E89A901481B590BF2
:100E0000CA019C878B878F89988DFC012485358545
:100E10008B859C85281739072CF48FEF9FE79A83E1
:100E2000898323C08F89988DFC018485958522272D
:100E30003327281B390B8B859C85821793072CF44D
:100E400081E090E89A83898310C08F89988DFC0196
:100E5000468157812B853C85429FC001439F900D61
:100E6000529F900D11249A8389838F89988DFC015C
:100E700022813381448155818B859C85092E000C0C
:100E8000AA0BBB0B820F931FA41FB51F8D879E87D4
:100E9000AF87B88B8F89988DFC012685378540896F
:100EA00051898D859E85AF85B889281739074A07EE
:100EB0005B07BCF48FEF9FEFAFEFBFE38B839C83A7
:100EC000AD83BE838F89988DFC0186859785A08927
:100ED000B1892F89388DF90182839383A483B583E7
:100EE00059C08F89988DFC0186859785A089B18925
:100EF00022273327A901281B390B4A0B5B0B8D8551
:100F00009E85AF85B88982179307A407B507F4F4C7
:100F100081E090E0A0E0B0EC8B839C83AD83BE8346
:100F20008F89988DFC0186859785A089B189B095B8
:100F3000A095909581959F4FAF4FBF4F2F89388DCA
:100F4000F90182839383A483B58324C02F89388DCC
:100F50008D859E85AF85B889F90182839383A483AB
:100F6000B5838F89988DFC01808591859C01990FAF
:100F7000440B550B8F89988DFC0182819381A4814C
:100F8000B581BC01CD0107D1DC01CB018B839C83F2
:100F9000AD83BE838F89988DFC01428553858F89EF
:100FA000988DFC01208131818D899E89281B390B08
:100FB000429FC001439F900D529F900D11249A8B28
:100FC000898B8F89988D2D893E89FC0131832083FF
:100FD00089819A819C01990F440B550B8B819C81CF
:100FE000AD81BE81280F391F4A1F5B1F89899A89ED
:100FF000092E000CAA0BBB0B820F931FA41FB51F59
:101000008F839887A987BA878F819885A985BA85A4
:1010100081159048A105B1054CF08FEF9FE7A0E046
:10102000B0E08F839887A987BA8711C08F81988590
:10103000A985BA8581309048AF4FBF4F44F481E015
:1010400090E8AFEFBFEF8F839887A987BA878F812A
:10105000988568960FB6F894DEBF0FBECDBFDF91BE
:10106000CF910895CF93DF9300D0CDB7DEB79A83A9
:10107000898389819A81FC011282138214821582EC
:101080000F900F90DF91CF910895CF93DF93CDB75D
:10109000DEB7F89481E0DF91CF910895CF93DF938D
:1010A00000D0CDB7DEB79A8389838FE590E02981A0
:1010B0003A81F9012081FC0120830F900F90DF918C
:1010C000CF9108951F920F9200905F000F9211240C
:1010D0002F938F939F93AF93BF93EF93FF93CF93F0
:1010E000DF93CDB7DEB780918D0090918E00A091F7
:1010F0008F00B09190000196A11DB11D80938D00CD
:1011000090938E00A0938F00B093900082E590E0C2
:1011100022E8FC012083DF91CF91FF91EF91BF91F5
:10112000AF919F918F912F910F9000925F000F9040
:101130001F901895CF93DF9300D000D000D0CDB78B
:10114000DEB78FE590E0FC0180818E839EDF8D838A
:101150000DC080918D0090918E00A0918F00B09174
:10116000900089839A83AB83BC831D828D81882301
:1011700081F7CE01069692DF89819A81AB81BC818D
:10118000BC01CD0126960FB6F894DEBF0FBECDBFD1
:10119000DF91CF910895DB018F939F933AD0BF9158
:1011A000AF91A29F800D911DA39F900DB29F900DB6
:1011B0001124089597FB072E16F4009406D077FDAE
:1011C00008D031D007FC05D03EF4909581959F4F13
:1011D0000895709561957F4F0895052E97FB16F43D
:1011E00000940FD057FD05D032D007FC02D046F452
:1011F00008C050954095309521953F4F4F4F5F4F18
:10120000089590958095709561957F4F8F4F9F4F72
:1012100008953FD0A59F900DB49F900DA49F800D81
:10122000911D11240895AA1BBB1B51E107C0AA1FE1
:10123000BB1FA617B70710F0A61BB70B881F991F77
:101240005A95A9F780959095BC01CD010895A1E22A
:101250001A2EAA1BBB1BFD010DC0AA1FBB1FEE1F30
:10126000FF1FA217B307E407F50720F0A21BB30B7B
:10127000E40BF50B661F771F881F991F1A9469F7F7
:1012800060957095809590959B01AC01BD01CF0153
:101290000895A29FB001B39FC001A39F01D0B29F48
:0E12A000700D811D1124911D0895F894FFCF4B
:0212AE0001003D
:00000001FF
