S01100004C445F5445435F50532E7372656346
S11300001FC02EC02DC02CC02BC02AC035C228C092
S113001027C082C325C024C06BC222C039C220C0FD
S11300201FC01EC01DC03F0C5B5E6C76771C7F7EBC
S113003000FF0100010000FFFF0000010001FF00BC
S113004011241FBECFE5D4E0DEBFCDBF20E0A0E683
S1130050B0E001C01D92AC38B207E1F753D2ABC394
S1130060CFCF0F931F93CF93DF93EC012881398176
S11300702632310559F02B32310561F1232B09F079
S11300805FC057C086E290E0998388836CD3009167
S11300906100109162002091630030916400DC01E2
S11300A0CB01801B910BA20BB30B0597A105B105E6
S11300B008F44AC058D3609361007093620080933F
S11300C063009093640012BAC698C7988BE290E0DC
S11300D09983888348D30091610010916200209134
S11300E0630030916400601771078207930771F110
S11300F0E0916000F0E0E757FF4FE081F0E0EA5D57
S1130100FF4FE49182B3E82BE2BB80916000811140
S113011001C0979A80916000813009F4C69A809159
S11301206000823009F4C79A809160008F5F8093E9
S1130130600080916000833008F4A4CF10926000C6
S11301401982188283E003C080E001C080E0DF915F
S1130150CF911F910F9108950F931F93CF93DF9326
S1130160EC01888199818032910551F084329105A6
S113017031F1892B09F04CC080E290E099838883A7
S1130180F2D220916D00DC01CB01821B9109A109FF
S1130190B1090297A105B10508F43EC0E4D2609309
S11301A06D0086B3887186958695869590916C00CE
S11301B0890F80936C0084E290E099838883D3D282
S11301C020916D00022F10E020E030E060177107ED
S11301D08207930719F190916C00E92FF0E0E05D3C
S11301E0FF4FE49180916B00E80FE0936B00990F4F
S11301F0990F9F7090936C00E11103C081E080938C
S11302006B0080916B0090E09093700080936F007E
S11302101982188283E003C080E001C080E0DF918E
S1130220CF911F910F9108950F931F93CF93DF9355
S1130230EC01288139812633310551F0213431050F
S1130240F1F1232B09F061C086E390E09983888360
S11302508AD2009167001091680020916900309162
S11302606A00601771078207930709F452C07BD2B2
S113027060936700709368008093690090936A00AC
S1130280B5990EC08091650090916600893E23E087
S1130290920730F40196909366008093650035C010
S11302A08091650090916600853823E09207E0F024
S11302B082E080936E0081E490E09983888353D236
S11302C000916700109168002091690030916A00E4
S11302D0DC01CB01801B910BA20BB30B883E934036
S11302E0A105B10570F417C0059758F080916E0010
S11302F08150823018F410926E0003C081E0809324
S11303006E0010926600109265001982188283E0D4
S113031003C080E001C080E0DF91CF911F910F9175
S113032008950F931F938B019C01FA013396DA0110
S113033013961C92B901A801769567955795479530
S1130340DB01CA01B695A79597958795480F591F64
S11303506A1F7B1FDB01CA01689413F8B695A79541
S1130360979587951694D1F7480F591F6A1F7B1FDD
S1130370BB27A72F962F852F480F591F6A1F7B1F56
S1130380CB01AA27BB27480F591F6A1F7B1FDB011C
S1130390CA01689412F8B695A7959795879516940F
S11303A0D1F7487F041B282F220F602F621B6A306D
S11303B040F06A508C019D010F5F1F4F2F4F3F4F3C
S11303C002C08C019D01605D629301151105210538
S11303D0310509F0AFCFCF011F910F910895CF934D
S11303E0DF93EC0188819981892B49F460916F0036
S11303F07091700080E090E049E850E092DF19824B
S1130400188283E0DF91CF910895CF93DF93EC01BD
S113041088819981009721F08739910529F024C0BA
S113042087E990E0998388839ED120917300DC0151
S1130430CB01821B9109A109B1094497A105B1051A
S1130440B8F091D160937300609181004091740081
S11304505091750070E080916F0090917000AFD062
S113046090937200809371001982188283E001C016
S113047080E0DF91CF9108951F920F920FB60F92F3
S113048011241DBC1CBC0F900FBE0F901F9018951B
S11304901F920F920FB60F9211248F939F93EF9395
S11304A0FF93E0918000F0E085B1EF57FF4F808328
S11304B08FEE87B9809180008F5F80938000809158
S11304C08000843038F487B190918000807F892B3C
S11304D087B904C01092800080EE87B9369AFF91E4
S11304E0EF919F918F910F900FBE0F901F901895D1
S11304F01F920F920FB60F9211240F900FBE0F9000
S11305001F9018959FEF91BB87EC87BB80EF84BB4E
S113051012BA88E388BB15BA83B7836083BF89B7EF
S1130520816189BF82E882BF80E48FBD81E08EBD96
S11305301BBC9ABD80EE87B98EE186B983E389B985
S113054010BC1BB888E18AB986E880BD10927F0090
S113055010927E00109279001092780010927D0023
S113056010927C0010927B0010927A001092770017
S113057010927600A8959FE088E10FB6F894A895AC
S113058081BD0FBE91BD789486B1806C86B98CE72D
S113059090E0E2DD8AE790E022DF8EE790E061DD23
S11305A088E790E041DE86E790E02FDF80916E00DF
S11305B0813011F4C09A01C0C098A895E8CFEF9299
S11305C0FF920F931F93CF93DF938B01FA01861B46
S11305D0970B248535852817390784F031952195A3
S11305E03109821793076CF026813781829FE001DD
S11305F0839FD00D929FD00D112405C0CFEFDFE76C
S113060002C0C1E0D0E8092E000CAA0BBB0B42814A
S11306105381648175819A01AB01280F391F4A1FE8
S11306205B1F86859785A089B18982179307A407E4
S1130630B5074CF482839383A483B5836FEF7FEF74
S11306408FEF9FE31CC0B095A095909581959F4F27
S1130650AF4FBF4F281739074A075B074CF4828313
S11306609383A483B58361E070E080E090EC07C0DD
S11306702283338344835583A085B18580D0208130
S11306803181201B310BA285B3852A9F70012B9FDA
S1130690F00C3A9FF00C1124118300838E01DD0FBE
S11306A0220B330BAB01BC01400F511F621F731FA0
S11306B0C701FF0CAA0BBB0B480F591F6A1F7B1FF6
S11306C0DB01CA01772324F481589F4FAF4FBF4FFA
S11306D0689416F8B595A795979587951694D1F7CC
S11306E0813020E892072FEFA207B20724F481E0BB
S11306F090E8AFEFBFEF811520E89207A105B1059F
S113070024F08FEF9FE7A0E0B0E0DF91CF911F913D
S11307100F91FF90EF9008951F920F920FB60F92D2
S113072011248F939F93AF93BF93809185009091F1
S11307308600A0918700B09188000196A11DB11D8B
S11307408093850090938600A0938700B0938800DF
S113075082E882BFBF91AF919F918F910F900FBE9E
S11307600F901F9018952FB7F894609185007091A1
S1130770860080918700909188002FBF0895B7FF6D
S113078004C003D0821B930B089509D0A59F900D3C
S1130790B49F900DA49F800D911D11240895A29FD4
S11307A0B001B39FC001A39F01D0B29F700D811D02
S10D07B01124911D0895F894FFCF61
S9030000FC
