:1000000017C026C025C024C023C022C0C4C320C03E
:100010001FC00AC51DC01CC03DC41AC0DEC318C025
:1000200017C016C015C03F0C5B5E6C76771C7F7ED8
:1000300011241FBECFE5D4E0DEBFCDBF20E0A0E697
:10004000B0E001C01D92A638B207E1F735D455C51E
:10005000D7CFCF93DF9300D000D0CDB7DEB78C835E
:100060008C81882F90E08A5D9F4F9A838983898154
:100070009A81FC0184918B838B810F900F900F905C
:100080000F90DF91CF910895EF92FF920F931F93FE
:10009000CF93DF9300D01F92CDB7DEB79B838A83C7
:1000A00081E089838A819B81FC01808191818632F4
:1000B000910579F08B32910509F44CC0892B09F434
:1000C0009BC0A2C08A819B8126E230E0FC01318383
:1000D0002083E2D49B01AC0180916000909161008B
:1000E000A0916200B091630079018A01E81AF90ACF
:1000F0000A0B1B0BD801C7010597A105B10510F428
:1001000080E089C0C9D4DC01CB018093600090936A
:100110006100A0936200B093630082E390E0FC0171
:10012000108288E390E028E330E0F90120812F7B02
:10013000FC01208388E390E028E330E0F90120818E
:100140002F77FC0120838A819B812BE230E0FC0128
:1001500031832083A1D49B01AC01809160009091F8
:100160006100A0916200B0916300281739074A0727
:100170005B0711F480E04FC080916400882F90E00D
:100180008D579F4FFC01808164DF482F82E390E010
:1001900022E330E0F9012081242BFC0120838091AF
:1001A0006400882349F482E390E022E330E0F9011F
:1001B00020812068FC01208380916400813049F413
:1001C00088E390E028E330E0F90120812064FC011D
:1001D000208380916400823049F488E390E028E332
:1001E00030E0F90120812068FC01208380916400C7
:1001F0008F5F8093640001C00000809164008330B1
:1002000008F460CF1092640019828A819B81FC01FE
:100210001182108283E00F900F900F90DF91CF91A9
:100220001F910F91FF90EF900895EF92FF920F931F
:100230001F93CF93DF9300D01F92CDB7DEB79B8380
:100240008A8381E089838A819B81FC0180819181FD
:100250008733910571F08234910509F453C0892BDD
:1002600009F06EC08A819B8127E330E0FC01318375
:10027000208312D49B01AC018091660090916700AD
:10028000A0916800B0916900281739074A075B07F9
:1002900011F480E05CC000D4DC01CB0180936600E7
:1002A00090936700A0936800B093690086E390E0A4
:1002B000FC018081882F90E080729927892B89F436
:1002C00080916A0090916B00893E934050F4809138
:1002D0006A0090916B00019690936B0080936A0086
:1002E0002FC080916A0090916B008538934020F177
:1002F00082E0809365008A819B8122E430E0FC01EA
:1003000031832083C9D39B01AC0180916600909119
:100310006700A0916800B091690079018A01E81A2C
:10032000F90A0A0B1B0BD801C701883E9340A105AF
:10033000B10510F480E00BC010926B0010926A00BF
:1003400019828A819B81FC011182108283E00F90C7
:100350000F900F90DF91CF911F910F91FF90EF9031
:1003600008952F923F924F925F926F927F928F9259
:100370009F92AF92BF92CF92DF92EF92FF920F9334
:100380001F93CF93DF93CDB7DEB762970FB6F89484
:10039000DEBF0FBECDBF6F87788B898B9A8B8F8521
:1003A0009889A989BA89B695A795979587958A87D7
:1003B0009B87AC87BD872A853B854C855D858A8573
:1003C0009B85AC85BD85B695A79597958795820F3A
:1003D000931FA41FB51F8A879B87AC87BD872A857B
:1003E0003B854C855D858A859B85AC85BD856894FC
:1003F00013F8B695A795979587951694D1F7820F20
:10040000931FA41FB51F8A879B87AC87BD872A854A
:100410003B854C855D858A859B85AC85BD85892F0F
:100420009A2FAB2FBB27820F931FA41FB51F8A875C
:100430009B87AC87BD872A853B854C855D858A85F2
:100440009B85AC85BD85CD01AA27BB27820F931F55
:10045000A41FB51F8A879B87AC87BD878A859B852C
:10046000AC85BD8589839A83AB83BC838A859B8554
:10047000AC85BD85689412F8B695A7959795879534
:100480001694D1F78A879B87AC87BD872F858A858D
:100490009B85AC85BD85982F990F8981887F890FB1
:1004A000922F981B892F8E878E858A3070F08E85CB
:1004B0008A508E878A859B85AC85BD850196A11D56
:1004C000B11D8A879B87AC87BD8785E0FE013A9680
:1004D000DE01159601900D928A95E1F740E04D817D
:1004E00030E03E8120E02F8190E0988580E0898592
:1004F000242E332E422E592E682EA22CB32CC42C1F
:10050000D52CE62CF72C082D192D2A2D3B2D4C2D02
:100510005D2D6E2D7F2D802F912F62960FB6F89452
:10052000DEBF0FBECDBFDF91CF911F910F91FF9026
:10053000EF90DF90CF90BF90AF909F908F907F9083
:100540006F905F904F903F902F900895AF92BF9221
:10055000CF92DF92EF92FF920F931F93CF93DF938F
:10056000CDB7DEB72B970FB6F894DEBF0FBECDBF69
:100570006E837F83888799875B874A878A859B8577
:1005800004969B878A878A859B8501979B878A87A4
:100590008A859B85FC0110828E819F81A885B98503
:1005A000BC01CD01DEDEA22EB32EC42ED52EE62E4A
:1005B000F72E082F192F2A2D3B2D4C2D5D2D6E2D3A
:1005C0007F2D802F912F29833A834B835C836D830A
:1005D0008A859B8501979B878A872D818A859B8544
:1005E000FC01208389819A81AB81BC818E839F83AA
:1005F000A887B9878E819F81A885B985892B8A2B89
:100600008B2B51F68A859B852B960FB6F894DEBF0F
:100610000FBECDBFDF91CF911F910F91FF90EF9053
:10062000DF90CF90BF90AF900895EF92FF920F931D
:100630001F93CF93DF9300D000D01F92CDB7DEB7CA
:100640009D838C8381E089838C819D81FC018081E5
:100650009181009721F0883A910541F089C08C8101
:100660009D8128EA30E0FC013183208315D29B0173
:10067000AC0180917900882F90E0A0E0B0E0790192
:100680008A01E81AF90A0A0B1B0BD801C7010A975D
:10069000A105B10510F480E072C085E590E025E584
:1006A00030E0F90120812068FC01208386E290E09F
:1006B00026E230E0F9012081206CFC01208388953E
:1006C00085E590E025E530E0F90120812F77FC01F8
:1006D000208380917A00883000F580917A008F5FC6
:1006E00080937A0080916C00282F30E040E050E049
:1006F00080917B0090917C00A0917D00B0917E0064
:10070000820F931FA41FB51F80937B0090937C00E2
:10071000A0937D00B0937E0026C010927A00809155
:100720007B0090917C00A0917D00B0917E0083E8D9
:1007300090E09B838A8380917B0090917C00A091C4
:100740007D00B0917E002A813B81A901BC01CD01D1
:10075000FDDE9B838A8310927B0010927C001092B6
:100760007D0010927E0098D1DC01CB01809379004E
:1007700019828C819D81FC011182108283E00F908F
:100780000F900F900F900F90DF91CF911F910F91CD
:10079000FF90EF9008951F920F9200905F000F92CC
:1007A00011248F939F93EF93FF93CF93DF93CDB754
:1007B000DEB78DE490E0FC0110828CE490E0FC0157
:1007C0001082DF91CF91FF91EF919F918F910F90C8
:1007D00000925F000F901F9018951F920F9200904B
:1007E0005F000F9211242F933F938F939F93EF936A
:1007F000FF93CF93DF93CDB7DEB780917000882F42
:1008000090E025E230E0F901208184599F4FFC01FE
:10081000208387E290E027E230E0F90120812F6019
:10082000FC012083809170008F5F80937000809125
:100830007000843068F487E290E027E230E0F9014C
:100840002081207F30917000232BFC0120830BC07E
:100850001092700087E290E027E230E0F9012081F9
:10086000207FFC01208386E290E026E230E0F9015F
:1008700020812064FC012083DF91CF91FF91EF91D3
:100880009F918F913F912F910F9000925F000F9059
:100890001F9018951F920F9200905F000F921124E5
:1008A000CF93DF93CDB7DEB7DF91CF910F9000925A
:1008B0005F000F901F901895CF93DF93CDB7DEB7F1
:1008C00081E390E02FEFFC01208387E390E027ECA9
:1008D000FC01208384E390E020EFFC01208382E38D
:1008E00090E0FC01108288E390E028E3FC01208383
:1008F00085E390E0FC01108283E590E023E530E0A1
:10090000F90120812360FC01208389E590E029E53D
:1009100030E0F90120812161FC01208382E590E033
:1009200022E8FC0120838BE490E0FC0110828AE441
:1009300090E02FEFFC01208387E290E020EEFC01A5
:10094000208386E290E02FE0FC01208385E590E0A3
:1009500025E530E0F90120812061FC01208310921F
:100960007200109271001092760010927500109231
:100970007400109273001092780010927700A8957E
:1009800087E087708860982F88E10FB6F894A89563
:1009900081BD0FBE91BD789482E08093830088E092
:1009A0008093840086E08093850081E790E06CDB93
:1009B00085E790E03ADC87E790E037DE80916500DC
:1009C000813051F488E390E028E330E0F9012081A0
:1009D0002160FC01208309C088E390E028E330E037
:1009E000F90120812E7FFC012083A895DECFCF93D3
:1009F000DF93CDB7DEB7F89481E0DF91CF91089512
:100A0000CF93DF9300D0CDB7DEB79A8389838FE58C
:100A100090E029813A81F9012081FC0120830F9027
:100A20000F90DF91CF9108951F920F9200905F0079
:100A30000F9211242F938F939F93AF93BF93EF93B4
:100A4000FF93CF93DF93CDB7DEB780917F00909176
:100A50008000A0918100B09182000196A11DB11D7E
:100A600080937F0090938000A0938100B0938200D8
:100A700082E590E022E8FC012083DF91CF91FF9195
:100A8000EF91BF91AF919F918F912F910F90009215
:100A90005F000F901F901895CF93DF9300D000D088
:100AA00000D0CDB7DEB78FE590E0FC0180818E836A
:100AB0009EDF8D830DC080917F0090918000A0917A
:100AC0008100B091820089839A83AB83BC831D82AD
:100AD0008D81882381F7CE01069692DF89819A81E4
:100AE000AB81BC81BC01CD0126960FB6F894DEBF68
:0E0AF0000FBECDBFDF91CF910895F894FFCFD8
:00000001FF
