:100000001FC039C038C037C036C035C028C333C060
:1000100032C032C030C02FC02EC02DC026C32BC06E
:100020002AC029C028C000FF0100010000FFFF0016
:1000300000010001FF003F0C5B5E6C76771C7F7E49
:1000400011241FBECFE5D4E0DEBFCDBF10E0A0E697
:10005000B0E0ECEAFBE002C005900D92A236B107D9
:10006000D9F720E0A2E6B0E001C01D92A239B207A4
:10007000E1F72AD399C5C4CF1F921FB61F9211244E
:100080008F939F93AF93BF93809162009091630091
:10009000A0916400B09165000196A11DB11D8093EF
:1000A000620090936300A0936400B093650082E8BF
:1000B00082BFBF91AF919F918F911F901FBE1F90E4
:1000C0001895CF93DF9300D000D0CDB7DEB78FB7B0
:1000D000F894209162003091630040916400509147
:1000E000650029833A834B835C838FBF69817A8162
:1000F0008B819C810F900F900F900F90DF91CF918B
:100100000895CF93DF9300D000D000D0CDB7DEB7F5
:100110008D839E83ED81FE8180819181873291055F
:1001200051F08B329105D9F1892B09F06BC087E230
:1001300090E091838083C5DF69837A838B839C837E
:1001400080916D0090E0B0E0A0E029813A814B8180
:100150005C81281739074A075B0751F480E026962F
:100160000FB6F894DEBF0FBECDBFDF91CF910895DB
:10017000A8DF60936D0086B390E023E095958795A6
:100180002A95E1F78370992790916C00890F8093ED
:100190006C008BE290E0ED81FE819183808391DFA2
:1001A00069837A838B839C8380916D0090E0B0E0BB
:1001B000A0E029813A814B815C81281739074A07E1
:1001C0005B0761F280916C00E82FF0E0EA5DFF4F81
:1001D000E491909160009E1B90936000880F880FBF
:1001E0008F7080936C0081E0992319F09F3F19F480
:1001F0008EEF809360008091600090E0909370009B
:1002000080936F00ED81FE811182108283E0A7CF81
:10021000CF93DF9300D000D000D0CDB7DEB78D8371
:100220009E83AD81BE818D919C9111978D339105F7
:1002300051F08834910509F44EC0892BE1F58DE326
:1002400090E08D939C933DDF69837A838B839C83BD
:100250008091680090916900A0916A00B0916B0054
:1002600029813A814B815C81281739074A075B074E
:1002700051F480E026960FB6F894DEBF0FBECDBFD6
:10028000DF91CF9108951DDF60936800709369003E
:1002900080936A0090936B00809166009091670054
:1002A000B5990FC0893E33E0930758F401969093B7
:1002B000670080936600AD81BE811D921C9283E031
:1002C000D9CF853843E0940740F188E490E0AD81D0
:1002D000BE818D939C93F5DE69837A838B839C83A7
:1002E0008091680090916900A0916A00B0916B00C4
:1002F00029813A814B815C81281B390B4A0B5B0BAE
:10030000DA01C901883E9340A105B10508F4B1CFD7
:100310001092670010926600CECF0597C8F38091C7
:100320006E00811104C081E080936E00F1CF8130B6
:1003300011F482E0F9CF823059F710926E00E8CFC5
:10034000CF92DF92EF92FF920F931F938B019C014C
:10035000FA01108211821282339668017901F694B3
:10036000E794D794C794B901A80192E07695679570
:10037000579547959A95D1F7C40ED51EE61EF71EE0
:10038000B701A60124E076956795579547952A957C
:10039000D1F74C0D5D1D6E1D7F1DC52ED62EE72E8F
:1003A000FF24C40ED51EE61EF71EA7016627772779
:1003B0004C0D5D1D6E1D7F1D6A017B0153E0F6949F
:1003C000E794D794C7945A95D1F7487F802F841B20
:1003D000482F2C2D220F421B970186014A3028F00E
:1003E0004A500F5F1F4F2F4F3F4F4293011511058A
:1003F0002105310509F0B1CFCF011F910F91FF9079
:10040000EF90DF90CF900895CF93DF9300D000D08E
:1004100000D0CDB7DEB78D839E83ED81FE818081D4
:100420009181009789F0813B9105A1F0ED81FE81DA
:100430001182108283E026960FB6F894DEBF0FBEBD
:10044000CDBFDF91CF91089581EB90E0ED81FE81EA
:100450009183808336DE69837A838B839C8380914A
:10046000770029813A814B815C81281B3109410940
:100470005109DA01C9010A97A105B10508F444C080
:1004800086B1806C86B9809176008032F8F48091D4
:1004900076008F5F809376002091890080917200B2
:1004A00090917300A0917400B0917500820F911D1E
:1004B000A11DB11D8093720090937300A0937400EE
:1004C000B0937500FEDD60937700B0CF1092760098
:1004D0008091720090917300A0917400B0917500AA
:1004E00025E0B695A795979587952A95D1F790938E
:1004F0008700809386001092720010927300109211
:10050000740010927500DECF80E095CFCF92DF921D
:10051000EF92FF920F931F93CF93DF9300D000D001
:1005200000D0CDB7DEB78C01DC018D919C91009796
:10053000B1F08D3C9105C1F0F8011182108283E089
:1005400026960FB6F894DEBF0FBECDBFDF91CF91D8
:100550001F910F91FF90EF90DF90CF9008958DEC59
:1005600090E0F80191838083ACDD69837A838B838B
:100570009C8380917100C980DA80EB80FC80C81A6E
:10058000D108E108F108D701C60184369105A1051B
:10059000B10508F462C0609186007091870050E058
:1005A00040E080916F009091700013D19C01809188
:1005B0006F0090917000609186007091870050E00C
:1005C00040E037FF46C005D1EE24FF24E81AF90ABF
:1005D000FE82ED8280916E0048E750E0811113C0E9
:1005E00080918600909187009C0150E040E0298333
:1005F0003A834B835C8348E750E069817A818B8141
:100600009C819EDEAC0180916E00813059F4809116
:100610006F00909170006C01F12CE12CC701B601C4
:100620008FDEAC0180916E00823041F4AD81BE81DD
:10063000CD01B0E0A0E0BC01CD0182DE90E080E021
:1006400092D180916F00809385003BDD60937100B3
:1006500073CFBFD08D839E83BDCF80E071CF8F934A
:1006600080916F008ABD8F9118951F921FB61F92BF
:1006700011248F939F93EF93FF93E0918800F0E014
:1006800085B1E757FF4F808387B18F6087B980912D
:1006900088008F5F8093880080918800843078F490
:1006A00087B190918800807F892B87B9369AFF9116
:1006B000EF919F918F911F901FBE1F9018951092E0
:1006C000880087B1807FF1CF8FEF81BB87EC87BB3C
:1006D00080EF84BB12BA88E388BB15BA83B7836006
:1006E00083BF82E882BF81E88FBD89E08EBD1BBCDD
:1006F0008FE78ABD1DBC1CBC19BE89B7816189BF4B
:1007000080EE87B9CFE0C6B985B7806185BF30E09C
:1007100020E050E040E070E060E082E090E02ED029
:1007200010928400109283001092800010927F003B
:10073000109282001092810010927E0010927D0033
:1007400010927C0010927B00A89588E10FB6F89477
:10075000A89581BD0FBEC1BD789483E890E009D112
:100760008FE790E055DD81E890E0CBDC8DE790E00D
:100770004BDE8BE790E0CADEA895EFCFCF93DF93F7
:10078000FB01E9011A821B821C821D8219821882D8
:100790009F838E83798768875B874A87BC016F5FF9
:1007A0007F4F8FEF9FE77FD17D876C879F012F5F02
:1007B0003F4F032E000C440B550B6FEF7FEF8FEF75
:1007C0009FE384D12E873F87488B598BDF91CF9150
:1007D00008958F929F92AF92BF92CF92DF92EF9245
:1007E000FF920F931F93CF93DF9300D000D000D0E0
:1007F000CDB7DEB78B016A019C01261B370BDA01EE
:100800001C968D919C911D97821793070CF480C0C4
:10081000919581959109281739070CF47EC0169699
:100820008D919C91289F7001299FF00C389FF00CAE
:100830001124032E000C440B550BF601828093808B
:10084000A480B580280D391D4A1D5B1D86859785BE
:10085000A089B18982179307A407B5070CF062C07D
:1008600082839383A483B5838FEF9FEFAFEFBFE3C2
:1008700089839A83AB83BC83F60180819181801B3D
:10088000910B22853385829FA001839F500D929FFB
:10089000500D112411830083C701FF0CAA0BBB0B61
:1008A00009811A812B813C81800F911FA21FB31FE8
:1008B000052E000C660B770B840F951FA61FB71F24
:1008C000813010E891071FEFA107B10724F481E000
:1008D00090E8AFEFBFEF811520E89207A105B105C1
:1008E00024F08FEF9FE7A0E0B0E026960FB6F894D3
:1008F000DEBF0FBECDBFDF91CF911F910F91FF9053
:10090000EF90DF90CF90BF90AF909F908F90089521
:10091000EE24EA949FE7F92E8CCFEE24E39480E84E
:10092000F82E87CFB095A095909581959F4FAF4FAA
:10093000BF4F281739074A075B074CF4828393831C
:10094000A483B58381E090E0A0E0B0EC91CF228356
:10095000338344835583A085B185D4D069837A835A
:100960008B839C8389CFFC011282138214821582AF
:100970000895CF93DF9300D000D000D0CDB7DEB77D
:100980008D839E83ED81FE818081918186329105E8
:10099000C1F08B32910509F44EC0892B31F480915E
:1009A0008D00833040F010928D00ED81FE81118228
:1009B000108283E022C086E290E0ED81FE81918387
:1009C00080837FDB69837A838B839C8380918E0015
:1009D00090918F00A0919000B091910029813A816F
:1009E0004B815C81281B390B4A0B5B0BDA01C90177
:1009F0000597A105B10550F480E026960FB6F8944E
:100A0000DEBF0FBECDBFDF91CF9108955ADB462FD9
:100A1000572FBC0140938E0050938F00609390003D
:100A20007093910012BAC698C7988BE290E0ED815E
:100A3000FE819183808345DB69837A838B839C83EA
:100A400080918E0090918F00A0919000B0919100C4
:100A500029813A814B815C81281739074A075B0756
:100A600059F2E0918D00F0E0E858FF4FE081F0E0AE
:100A7000EA5CFF4FE49182B38E2B82BB80918D00A4
:100A8000811101C0979A80918D00813009F4C69A36
:100A900080918D00823009F4C79A80918D008F5F1C
:100AA00080938D007CCF97FB072E16F4009406D020
:100AB00077FD08D02DD007FC05D03EF490958195A8
:100AC0009F4F0895709561957F4F0895052E97FB70
:100AD00016F400940FD057FD05D02ED007FC02D09D
:100AE00046F408C050954095309521953F4F4F4FA3
:100AF0005F4F089590958095709561957F4F8F4FCA
:100B00009F4F0895B7FF3AC039D0821B930B0895C9
:100B1000AA1BBB1B51E107C0AA1FBB1FA617B70723
:100B200010F0A61BB70B881F991F5A95A9F780953F
:100B30009095BC01CD010895A1E21A2EAA1BBB1B02
:100B4000FD010DC0AA1FBB1FEE1FFF1FA217B30799
:100B5000E407F50720F0A21BB30BE40BF50B661FAF
:100B6000771F881F991F1A9469F760957095809573
:100B700090959B01AC01BD01CF01089509D0A59FBF
:100B8000900DB49F900DA49F800D911D1124089588
:100B9000A29FB001B39FC001A39F01D0B29F700D6F
:0C0BA000811D1124911D0895F894FFCFD1
:020BAC00010046
:00000001FF
