:100000001FC02EC02DC02CC02BC02AC039C128C093
:1000100027C011C125C024C023C022C022C020C0D7
:100020001FC01EC01DC000FF0100010000FFFF0037
:1000300000010001FF003F0C5B5E6C76771C7F7E49
:1000400011241FBECFE5D4E0DEBFCDBF20E0A0E687
:10005000B0E001C01D92AE39B207E1F7E0D163C351
:10006000CFCF1F921FB61F9211248F939F93EF93B0
:10007000FF93E0917A0084B195B1F0E0EE0FFF1F9D
:10008000E558FF4F9183808387B18F6087B9809156
:100090007A008F5F80937A0080917A00843078F4C0
:1000A00087B190917A00807F892B87B9369AFF912A
:1000B000EF919F918F911F901FBE1F9018951092E6
:1000C0007A0087B1807FF1CFCF93DF9300D000D04B
:1000D00000D0CDB7DEB78D839E83ED81FE81808118
:1000E0009181009781F04F97A1F0ED81FE811182FF
:1000F000108283E026960FB6F894DEBF0FBECDBF08
:10010000DF91CF9108958FE190E0ED81FE819183A1
:100110008083B7D069837A838B839C8380917100BD
:1001200029813A814B815C81281B310941095109A0
:10013000DA01C9010A97A105B10508F47AC080EE79
:1001400087B98FE086B985B7806185BF86B1806C3D
:1001500086B980917000803230F5809170008F5F99
:1001600080937000ABE7B0E090E080E0FC01EE0F20
:10017000FF1FEE0FFF1FE05AFF4F40815181628148
:1001800073812D913D91420F531F611D711D40835D
:1001900051836283738301968430910539F771D05E
:1001A00060937100A2CF10927000E2E7F0E090E05F
:1001B00080E0DC01AA0FBB1FAA0FBB1FA05ABF4FD4
:1001C0004D915D916D917C9121913191DF0112975B
:1001D000689414F876956795579547951694D1F7D6
:1001E000240F351F2D933C9301968430910509F718
:1001F00010926000109261001092620010926300F1
:1002000010926400109265001092660010926700D0
:10021000109268001092690010926A0010926B00B0
:1002200010926C0010926D0010926E0010926F0090
:10023000B6CF80E05FCF1F921FB61F9211248F931D
:100240009F93AF93BF938091830090918400A0917E
:100250008500B09186000196A11DB11D8093830099
:1002600090938400A0938500B093860085EF82BFB1
:10027000BF91AF919F918F911F901FBE1F901895B6
:100280001895CF93DF9300D000D0CDB7DEB78FB7EE
:10029000F894209183003091840040918500509122
:1002A000860029833A834B835C838FBF69817A817F
:1002B0008B819C810F900F900F900F90DF91CF91C9
:1002C0000895DC018D919C911197009731F08597ED
:1002D00049F01D921C9283E0089585E290E011960A
:1002E0009C938E93B49902C0B39B1AC0E6B3F0E01E
:1002F00083E0F595E7958A95E1F7E370FF27EA5DDE
:10030000FF4FE49190918B00892F8E1B9E1304C0A8
:1003100081E080938B00DDCF8F3FD9F78EEFF9CF4F
:1003200080E00895FC0180819181009731F0C397AE
:1003300041F01182108283E0089583E390E091837D
:100340008083B59907C080E0089501969093880056
:10035000809387008091870090918800B59912C0A2
:10036000893E23E0920788F38091890090918A006A
:10037000029690938A0080938900109288001092D0
:100380008700D7CF853823E0920770F70597A8F349
:100390008091890090918A000196EBCFCF93DF93F3
:1003A00000D000D000D0CDB7DEB78D839E83ED8125
:1003B000FE8180819181009781F08F97A1F0ED817E
:1003C000FE811182108283E026960FB6F894DEBF7C
:1003D0000FBECDBFDF91CF9108958FE290E0ED8108
:1003E000FE81918380834DDF69837A838B839C8335
:1003F00080918C0029813A814B815C81281B3109D5
:1004000041095109DA01C90184369105A105B105F7
:1004100020F037DF60938C00D2CF80E0D5CF8FEF14
:1004200081BB87EC87BB80EF84BB12BA88E388BBB3
:1004300015BA83B7846083BF85EF82BF89B78160B7
:1004400089BF81E88FBD89E08EBD1BBC8FE78ABD67
:100450001DBC1CBC19BE89B7816189BF30E020E09A
:1004600050E040E070E060E082E090E036D0109232
:1004700096001092950010929200109291001092A6
:100480009400109293001092900010928F0010929E
:100490008E0010928D0010928A001092890081E0E7
:1004A00080938B00A89588E19FE00FB6F894A895FB
:1004B00081BD0FBE91BD789485E990E039D081E986
:1004C00090E030DF83E990E0FCDE8FE890E0FCDD37
:1004D0008DE890E063DFA895EFCFCF93DF93FB012A
:1004E000E9011A821B821C821D82198218829F8355
:1004F0008E83798768875B874A87BC016F5F7F4FF0
:100500008FEF9FE7ABD07D876C879F012F5F3F4FB9
:10051000032E000C440B550B6FEF7FEF8FEF9FE323
:10052000B0D02E873F87488B598BDF91CF910895AC
:100530000F931F93CF93DF9300D000D00F92CDB7CE
:10054000DEB78C01FC01808191818231910599F1A6
:100550008831910509F477C0892B09F06FC01D829D
:1005600082E190E0F801918380838BDE69837A8356
:100570008B839C838091970090919800A091990023
:10058000B0919A0029813A814B815C81281B390BFB
:100590004A0B5B0BDA01C9010597A105B10568F4A7
:1005A00080E00F900F900F900F900F90DF91CF9100
:1005B0001F910F9108951D82D8CF63DE462F572FCC
:1005C000BC014093970050939800609399007093FA
:1005D0009A0012BA88B3807C88BB88E190E0F80169
:1005E000918380834EDE69837A838B839C838091A1
:1005F000970090919800A0919900B0919A0029815C
:100600003A814B815C81281739074A075B0741F221
:100610003D81E32FF0E0E556FF4FE081F0E0EA5C3A
:10062000FF4FE49182B38E2B82BB31110EC0979A9B
:100630005D815F5F5D83533009F092CFF8011182D5
:10064000108283E0AECF1D82CDCF4D81413021F0AD
:10065000423071F7C79AECCFC69AEACF97FB072EC4
:1006600016F4009406D077FD08D027D007FC05D0FB
:100670003EF4909581959F4F0895709561957F4FB9
:100680000895052E97FB16F400940FD057FD05D062
:1006900028D007FC02D046F408C05095409530950C
:1006A00021953F4F4F4F5F4F0895909580957095DE
:1006B00061957F4F8F4F9F4F0895AA1BBB1B51E140
:1006C00007C0AA1FBB1FA617B70710F0A61BB70BC2
:1006D000881F991F5A95A9F780959095BC01CD0167
:1006E0000895A1E21A2EAA1BBB1BFD010DC0AA1F73
:1006F000BB1FEE1FFF1FA217B307E407F50720F08B
:10070000A21BB30BE40BF50B661F771F881F991F05
:100710001A9469F760957095809590959B01AC014E
:0A072000BD01CF010895F894FFCF4A
:00000001FF
