:100000001FC02EC02DC02CC02BC02AC0FFC028C0CE
:1000100027C0D7C025C024C023C022C022C020C012
:100020001FC01EC01DC000FF0100010000FFFF0037
:1000300000010001FF003F0C5B5E6C76771C7F7E49
:1000400011241FBECFE5D4E0DEBFCDBF20E0A0E687
:10005000B0E001C01D92A838B207E1F7A6D12FC3C6
:10006000CFCF1F921FB61F9211248F939F93EF93B0
:10007000FF93E0916800F0E085B1E759FF4F80837E
:1000800087B18F6087B9809168008F5F8093680027
:1000900080916800843078F487B190916800807F07
:1000A000892B87B9369AFF91EF919F918F911F907D
:1000B0001FBE1F9018951092680087B1807FF1CF06
:1000C000CF93DF9300D000D000D0CDB7DEB78D83C3
:1000D0009E83ED81FE8180819181009781F04F9711
:1000E000A1F0ED81FE811182108283E026960FB689
:1000F000F894DEBF0FBECDBFDF91CF9108958FE1A1
:1001000090E0ED81FE819183808381D069837A8341
:100110008B839C838091650029813A814B815C812E
:10012000281B310941095109DA01C9010A97A105C2
:10013000B10508F444C086B1806C86B98091640032
:100140008032F8F4809164008F5F80936400209186
:1001500069008091600090916100A0916200B0916F
:100160006300820F911DA11DB11D809360009093CB
:100170006100A0936200B093630049D06093650072
:10018000B0CF109264008091600090916100A091C6
:100190006200B091630025E0B695A7959795879585
:1001A0002A95D1F7909367008093660010926000C3
:1001B000109261001092620010926300DECF80E026
:1001C00095CF1F921FB61F9211248F939F93AF93C9
:1001D000BF9380916D0090916E00A0916F00B091DF
:1001E00070000196A11DB11D80936D0090936E006B
:1001F000A0936F00B093700085EF82BFBF91AF9165
:100200009F918F911F901FBE1F9018951895CF93A7
:10021000DF9300D000D0CDB7DEB78FB7F894209130
:100220006D0030916E0040916F00509170002983F5
:100230003A834B835C838FBF69817A818B819C81F8
:100240000F900F900F900F90DF91CF910895DC01E8
:100250008D919C911197009731F0859749F01D92EF
:100260001C9283E0089585E290E011969C938E9312
:10027000B49902C0B39B1AC0E6B3F0E083E0F595F1
:10028000E7958A95E1F7E370FF27EA5DFF4FE49178
:1002900090917500892F8E1B9E1304C081E080937E
:1002A0007500DDCF8F3FD9F78EEFF9CF80E008954D
:1002B000FC0180819181009731F0C49741F0118257
:1002C000108283E0089584E390E091838083B59960
:1002D00007C080E0089501969093720080937100AA
:1002E0008091710090917200B59912C0893E23E00F
:1002F000920788F380917300909174000296909316
:100300007400809373001092720010927100D7CF26
:10031000853823E0920770F70597A8F38091730062
:10032000909174000196EBCFCF93DF9300D000D073
:1003300000D0CDB7DEB78D839E83ED81FE818081B5
:100340009181009781F08797A1F0ED81FE81118264
:10035000108283E026960FB6F894DEBF0FBECDBFA5
:10036000DF91CF91089587E290E0ED81FE81918346
:1003700080834DDF69837A838B839C8380917600B1
:1003800029813A814B815C81281B3109410951093E
:10039000DA01C90184369105A105B10520F037DFE6
:1003A00060937600D2CF80E0D5CF8FEF81BB87EC12
:1003B00087BB80EF84BB12BA88E388BB15BA83B7CA
:1003C000846083BF85EF82BF89B7816089BF81E880
:1003D0008FBD89E08EBD1BBC8FE78ABD1DBC1CBCD8
:1003E00019BE89B7816189BF80EE87B9CFE0C6B9F0
:1003F00085B7806185BF30E020E050E040E070E0EC
:1004000060E082E090E035D01092800010927F0092
:1004100010927C0010927B0010927E0010927D0062
:1004200010927A0010927900109278001092770062
:10043000109274001092730081E080937500A8956B
:1004400088E10FB6F894A89581BD0FBEC1BD789420
:100450008FE790E039D08BE790E02ADF8DE790E0DE
:10046000F6DE89E790E02CDE87E790E05DDFA89577
:10047000EFCFCF93DF93FB01E9011A821B821C822D
:100480001D82198218829F838E83798768875B8794
:100490004A87BC016F5F7F4F8FEF9FE7ABD07D87AF
:1004A0006C879F012F5F3F4F032E000C440B550BB1
:1004B0006FEF7FEF8FEF9FE3B0D02E873F87488BA2
:1004C000598BDF91CF9108950F931F93CF93DF93B3
:1004D00000D000D00F92CDB7DEB78C01FC01808137
:1004E00091818231910599F18831910509F477C0A4
:1004F000892B09F06FC01D8282E190E0F8019183A1
:10050000808385DE69837A838B839C8380918100DD
:1005100090918200A0918300B091840029813A815A
:100520004B815C81281B390B4A0B5B0BDA01C9013B
:100530000597A105B10568F480E00F900F900F902A
:100540000F900F90DF91CF911F910F9108951D8211
:10055000D8CF5DDE462F572FBC01409381005093CA
:100560008200609383007093840012BA88B3807C09
:1005700088BB88E190E0F8019183808348DE69833D
:100580007A838B839C838091810090918200A091DB
:100590008300B091840029813A814B815C812817C6
:1005A00039074A075B0741F23D81E32FF0E0EB5743
:1005B000FF4FE081F0E0EA5CFF4FE49182B38E2BC5
:1005C00082BB31110EC0979A5D815F5F5D835330AE
:1005D00009F092CFF8011182108283E0AECF1D8224
:1005E000CDCF4D81413021F0423071F7C79AECCF29
:1005F000C69AEACF97FB072E16F4009406D077FD33
:1006000008D027D007FC05D03EF4909581959F4FE8
:100610000895709561957F4F0895052E97FB16F408
:1006200000940FD057FD05D028D007FC02D046F427
:1006300008C050954095309521953F4F4F4F5F4FE3
:10064000089590958095709561957F4F8F4F9F4F3E
:100650000895AA1BBB1B51E107C0AA1FBB1FA61709
:10066000B70710F0A61BB70B881F991F5A95A9F75B
:1006700080959095BC01CD010895A1E21A2EAA1B88
:10068000BB1BFD010DC0AA1FBB1FEE1FFF1FA21742
:10069000B307E407F50720F0A21BB30BE40BF50B3F
:1006A000661F771F881F991F1A9469F760957095C8
:1006B000809590959B01AC01BD01CF010895F89400
:0206C000FFCF6A
:00000001FF
