:100000001FC039C038C037C036C035C00AC133C080
:1000100032C0E2C030C02FC02EC02DC02DC02BC0BA
:100020002AC029C028C000FF0100010000FFFF0016
:1000300000010001FF003F0C5B5E6C76771C7F7E49
:1000400011241FBECFE5D4E0DEBFCDBF10E0A0E697
:10005000B0E0E8E3F8E002C005900D92A236B107E7
:10006000D9F720E0A2E6B0E001C01D92A039B207A6
:10007000E1F75DD2DFC3C4CF1F921FB61F921124D8
:100080008F939F93EF93FF93E0916A00F0E085B127
:10009000E559FF4F808387B18F6087B980916A00EF
:1000A0008F5F80936A0080916A00843078F487B112
:1000B00090916A00807F892B87B9369AFF91EF91E2
:1000C0009F918F911F901FBE1F90189510926A00EC
:1000D00087B1807FF1CFCF93DF9300D000D000D0E5
:1000E000CDB7DEB78D839E83ED81FE8180819181C6
:1000F000009781F04F97A1F0ED81FE81118210826F
:1001000083E026960FB6F894DEBF0FBECDBFDF9119
:10011000CF9108958FE190E0ED81FE8191838083FE
:1001200086D069837A838B839C8380916700298141
:100130003A814B815C81281B310941095109DA015F
:10014000C9010A97A105B10508F444C086B1806CC5
:1001500086B9809166008032F8F4809166008F5FE6
:100160008093660020916B00809162009091630003
:10017000A0916400B0916500820F911DA11DB11D79
:100180008093620090936300A0936400B093650035
:100190004ED060936700B0CF1092660080916200ED
:1001A00090916300A0916400B091650025E0B69540
:1001B000A795979587952A95D1F790936900809395
:1001C0006800109262001092630010926400109216
:1001D0006500DECF80E095CF1F921FB61F921124DD
:1001E0008F939F93AF93BF9380916F009091700016
:1001F000A0917100B09172000196A11DB11D809374
:100200006F0090937000A0937100B093720085EF1F
:1002100082BFBF91AF919F918F911F901FBE1F9082
:1002200018958F9380917C008ABD8F911895CF93FC
:10023000DF9300D000D0CDB7DEB78FB7F894209110
:100240006F003091700040917100509172002983CD
:100250003A834B835C838FBF69817A818B819C81D8
:100260000F900F900F900F90DF91CF910895CF9343
:10027000DF9300D000D000D0CDB7DEB78D839E8352
:10028000ED81FE81808191818732910551F08B3221
:100290009105D9F1892B09F06BC087E290E0918339
:1002A0008083C5DF69837A838B839C8380917A0006
:1002B00090E0B0E0A0E029813A814B815C81281771
:1002C00039074A075B0751F480E026960FB6F89489
:1002D000DEBF0FBECDBFDF91CF910895A8DF609341
:1002E0007A0086B390E023E0959587952A95E1F70B
:1002F0008370992790917900890F809379008BE220
:1003000090E0ED81FE819183808391DF69837A8320
:100310008B839C8380917A0090E0B0E0A0E02981FB
:100320003A814B815C81281739074A075B0761F2E4
:1003300080917900E82FF0E0EA5DFF4FE491909121
:1003400060009E1B90936000880F880F8F708093D1
:10035000790081E0992319F09F3F19F48EEF809383
:1003600060008091600090E090937D0080937C001D
:10037000ED81FE811182108283E0A7CFCF93DF93BE
:1003800000D000D000D0CDB7DEB78D839E83AD8185
:10039000BE818D919C9111978D33910551F08834D8
:1003A000910509F44EC0892BE1F58DE390E08D9322
:1003B0009C933DDF69837A838B839C838091750056
:1003C00090917600A0917700B091780029813A81D0
:1003D0004B815C81281739074A075B0751F480E09D
:1003E00026960FB6F894DEBF0FBECDBFDF91CF913A
:1003F00008951DDF609375007093760080937700F9
:10040000909378008091730090917400B5990FC01B
:10041000893E33E0930758F40196909374008093DB
:100420007300AD81BE811D921C9283E0D9CF8538C7
:1004300043E0940740F188E490E0AD81BE818D9364
:100440009C93F5DE69837A838B839C83809175000E
:1004500090917600A0917700B091780029813A813F
:100460004B815C81281B390B4A0B5B0BDA01C901FC
:10047000883E9340A105B10508F4B1CF10927400F5
:1004800010927300CECF0597C8F380917B00811145
:1004900004C081E080937B00F1CF813011F482E0D1
:1004A000F9CF823059F710927B00E8CFCF93DF93DA
:1004B00000D000D000D0CDB7DEB78D839E83ED8114
:1004C000FE8180819181009781F08797A1F0ED8175
:1004D000FE811182108283E026960FB6F894DEBF6B
:1004E0000FBECDBFDF91CF91089587E290E0ED81FF
:1004F000FE81918380839BDE69837A838B839C83D7
:1005000080917E0029813A814B815C81281B3109D1
:1005100041095109DA01C90184369105A105B105E6
:1005200020F085DE60937E00D2CF80E0D5CF8FEFC4
:1005300081BB87EC87BB80EF84BB12BA88E388BBA2
:1005400015BA83B7846083BF85EF82BF89B78160A6
:1005500089BF81E88FBD89E08EBD1BBC8FE78ABD56
:100560001DBC1CBC19BE89B7816189BF80EE87B9EB
:10057000CFE0C6B985B7806185BF30E020E050E0AC
:1005800040E070E060E082E090E02ED010928800C1
:1005900010928700109284001092830010928600BF
:1005A00010928500109282001092810010928000BB
:1005B00010927F00A89588E10FB6F894A89581BDA8
:1005C0000FBEC1BD789487E890E039D083E890E011
:1005D000D5DE85E890E04BDE81E890E07CDD8FE7BA
:1005E00090E064DFA895EFCFCF93DF93FB01E901A3
:1005F0001A821B821C821D82198218829F838E831D
:10060000798768875B874A87BC016F5F7F4F8FEF71
:100610009FE7ABD07D876C879F012F5F3F4F032EF5
:10062000000C440B550B6FEF7FEF8FEF9FE3B0D0C3
:100630002E873F87488B598BDF91CF9108950F9379
:100640001F93CF93DF9300D000D00F92CDB7DEB7CA
:100650008C01FC01808191818231910599F1883171
:10066000910509F477C0892B09F06FC01D8282E1E2
:1006700090E0F80191838083DADD69837A838B834C
:100680009C838091890090918A00A0918B00B09109
:100690008C0029813A814B815C81281B390B4A0BE4
:1006A0005B0BDA01C9010597A105B10568F480E08B
:1006B0000F900F900F900F900F90DF91CF911F919F
:1006C0000F9108951D82D8CFB2DD462F572FBC0160
:1006D0004093890050938A0060938B0070938C0044
:1006E00012BA88B3807C88BB88E190E0F8019183DE
:1006F00080839DDD69837A838B839C8380918900CD
:1007000090918A00A0918B00B0918C0029813A8150
:100710004B815C81281739074A075B0741F23D810D
:10072000E32FF0E0E357FF4FE081F0E0EA5CFF4F9A
:10073000E49182B38E2B82BB31110EC0979A5D81FA
:100740005F5F5D83533009F092CFF8011182108210
:1007500083E0AECF1D82CDCF4D81413021F04230BC
:1007600071F7C79AECCFC69AEACF97FB072E16F41B
:10077000009406D077FD08D027D007FC05D03EF4C2
:10078000909581959F4F0895709561957F4F08953D
:10079000052E97FB16F400940FD057FD05D028D0F6
:1007A00007FC02D046F408C050954095309521953D
:1007B0003F4F4F4F5F4F089590958095709561958D
:1007C0007F4F8F4F9F4F0895AA1BBB1B51E107C05E
:1007D000AA1FBB1FA617B70710F0A61BB70B881FD1
:1007E000991F5A95A9F780959095BC01CD01089560
:1007F000A1E21A2EAA1BBB1BFD010DC0AA1FBB1F25
:10080000EE1FFF1FA217B307E407F50720F0A21B96
:10081000B30BE40BF50B661F771F881F991F1A9403
:1008200069F760957095809590959B01AC01BD012D
:08083000CF010895F894FFCFF9
:020838000100BD
:00000001FF
